{
  "contractName": "TaskContract",
  "abi": [
    {
      "anonymous": false,
      "inputs": [
        {
          "indexed": false,
          "internalType": "uint256",
          "name": "_id",
          "type": "uint256"
        }
      ],
      "name": "TaskCreated",
      "type": "event"
    },
    {
      "anonymous": false,
      "inputs": [
        {
          "indexed": false,
          "internalType": "uint256",
          "name": "_id",
          "type": "uint256"
        }
      ],
      "name": "TaskDeleted",
      "type": "event"
    },
    {
      "anonymous": false,
      "inputs": [
        {
          "indexed": false,
          "internalType": "uint256",
          "name": "_id",
          "type": "uint256"
        }
      ],
      "name": "TaskUpdated",
      "type": "event"
    },
    {
      "inputs": [
        {
          "internalType": "address",
          "name": "",
          "type": "address"
        }
      ],
      "name": "ownerToTaskCount",
      "outputs": [
        {
          "internalType": "uint256",
          "name": "",
          "type": "uint256"
        }
      ],
      "stateMutability": "view",
      "type": "function"
    },
    {
      "inputs": [
        {
          "internalType": "uint256",
          "name": "",
          "type": "uint256"
        }
      ],
      "name": "taskToOwner",
      "outputs": [
        {
          "internalType": "address",
          "name": "",
          "type": "address"
        }
      ],
      "stateMutability": "view",
      "type": "function"
    },
    {
      "inputs": [
        {
          "internalType": "string",
          "name": "_name",
          "type": "string"
        },
        {
          "internalType": "string",
          "name": "_description",
          "type": "string"
        }
      ],
      "name": "addTask",
      "outputs": [],
      "stateMutability": "nonpayable",
      "type": "function"
    },
    {
      "inputs": [
        {
          "internalType": "uint256",
          "name": "id",
          "type": "uint256"
        }
      ],
      "name": "getTask",
      "outputs": [
        {
          "components": [
            {
              "internalType": "string",
              "name": "name",
              "type": "string"
            },
            {
              "internalType": "string",
              "name": "description",
              "type": "string"
            },
            {
              "internalType": "bool",
              "name": "completed",
              "type": "bool"
            },
            {
              "internalType": "bool",
              "name": "deleted",
              "type": "bool"
            },
            {
              "internalType": "bool",
              "name": "starred",
              "type": "bool"
            },
            {
              "internalType": "bool",
              "name": "important",
              "type": "bool"
            },
            {
              "internalType": "uint256",
              "name": "created_at",
              "type": "uint256"
            }
          ],
          "internalType": "struct TaskContract.Task",
          "name": "tsk",
          "type": "tuple"
        }
      ],
      "stateMutability": "view",
      "type": "function"
    },
    {
      "inputs": [],
      "name": "getTasksStatusCount",
      "outputs": [
        {
          "internalType": "uint256",
          "name": "completed",
          "type": "uint256"
        },
        {
          "internalType": "uint256",
          "name": "incomplete",
          "type": "uint256"
        },
        {
          "internalType": "uint256",
          "name": "deleted",
          "type": "uint256"
        },
        {
          "internalType": "uint256",
          "name": "important",
          "type": "uint256"
        },
        {
          "internalType": "uint256",
          "name": "unimportant",
          "type": "uint256"
        },
        {
          "internalType": "uint256",
          "name": "starred",
          "type": "uint256"
        },
        {
          "internalType": "uint256",
          "name": "unstarred",
          "type": "uint256"
        }
      ],
      "stateMutability": "view",
      "type": "function"
    },
    {
      "inputs": [],
      "name": "getTasks",
      "outputs": [
        {
          "components": [
            {
              "internalType": "string",
              "name": "name",
              "type": "string"
            },
            {
              "internalType": "string",
              "name": "description",
              "type": "string"
            },
            {
              "internalType": "bool",
              "name": "completed",
              "type": "bool"
            },
            {
              "internalType": "bool",
              "name": "deleted",
              "type": "bool"
            },
            {
              "internalType": "bool",
              "name": "starred",
              "type": "bool"
            },
            {
              "internalType": "bool",
              "name": "important",
              "type": "bool"
            },
            {
              "internalType": "uint256",
              "name": "created_at",
              "type": "uint256"
            }
          ],
          "internalType": "struct TaskContract.Task[]",
          "name": "",
          "type": "tuple[]"
        }
      ],
      "stateMutability": "view",
      "type": "function"
    },
    {
      "inputs": [],
      "name": "getTasksCompletedByUser",
      "outputs": [
        {
          "components": [
            {
              "internalType": "string",
              "name": "name",
              "type": "string"
            },
            {
              "internalType": "string",
              "name": "description",
              "type": "string"
            },
            {
              "internalType": "bool",
              "name": "completed",
              "type": "bool"
            },
            {
              "internalType": "bool",
              "name": "deleted",
              "type": "bool"
            },
            {
              "internalType": "bool",
              "name": "starred",
              "type": "bool"
            },
            {
              "internalType": "bool",
              "name": "important",
              "type": "bool"
            },
            {
              "internalType": "uint256",
              "name": "created_at",
              "type": "uint256"
            }
          ],
          "internalType": "struct TaskContract.Task[]",
          "name": "",
          "type": "tuple[]"
        }
      ],
      "stateMutability": "view",
      "type": "function"
    },
    {
      "inputs": [],
      "name": "getTasksNotCompletedByUser",
      "outputs": [
        {
          "components": [
            {
              "internalType": "string",
              "name": "name",
              "type": "string"
            },
            {
              "internalType": "string",
              "name": "description",
              "type": "string"
            },
            {
              "internalType": "bool",
              "name": "completed",
              "type": "bool"
            },
            {
              "internalType": "bool",
              "name": "deleted",
              "type": "bool"
            },
            {
              "internalType": "bool",
              "name": "starred",
              "type": "bool"
            },
            {
              "internalType": "bool",
              "name": "important",
              "type": "bool"
            },
            {
              "internalType": "uint256",
              "name": "created_at",
              "type": "uint256"
            }
          ],
          "internalType": "struct TaskContract.Task[]",
          "name": "",
          "type": "tuple[]"
        }
      ],
      "stateMutability": "view",
      "type": "function"
    },
    {
      "inputs": [],
      "name": "getStarredTasks",
      "outputs": [
        {
          "components": [
            {
              "internalType": "string",
              "name": "name",
              "type": "string"
            },
            {
              "internalType": "string",
              "name": "description",
              "type": "string"
            },
            {
              "internalType": "bool",
              "name": "completed",
              "type": "bool"
            },
            {
              "internalType": "bool",
              "name": "deleted",
              "type": "bool"
            },
            {
              "internalType": "bool",
              "name": "starred",
              "type": "bool"
            },
            {
              "internalType": "bool",
              "name": "important",
              "type": "bool"
            },
            {
              "internalType": "uint256",
              "name": "created_at",
              "type": "uint256"
            }
          ],
          "internalType": "struct TaskContract.Task[]",
          "name": "",
          "type": "tuple[]"
        }
      ],
      "stateMutability": "view",
      "type": "function"
    },
    {
      "inputs": [],
      "name": "getUnstarredTasks",
      "outputs": [
        {
          "components": [
            {
              "internalType": "string",
              "name": "name",
              "type": "string"
            },
            {
              "internalType": "string",
              "name": "description",
              "type": "string"
            },
            {
              "internalType": "bool",
              "name": "completed",
              "type": "bool"
            },
            {
              "internalType": "bool",
              "name": "deleted",
              "type": "bool"
            },
            {
              "internalType": "bool",
              "name": "starred",
              "type": "bool"
            },
            {
              "internalType": "bool",
              "name": "important",
              "type": "bool"
            },
            {
              "internalType": "uint256",
              "name": "created_at",
              "type": "uint256"
            }
          ],
          "internalType": "struct TaskContract.Task[]",
          "name": "",
          "type": "tuple[]"
        }
      ],
      "stateMutability": "view",
      "type": "function"
    },
    {
      "inputs": [],
      "name": "getImportantTasks",
      "outputs": [
        {
          "components": [
            {
              "internalType": "string",
              "name": "name",
              "type": "string"
            },
            {
              "internalType": "string",
              "name": "description",
              "type": "string"
            },
            {
              "internalType": "bool",
              "name": "completed",
              "type": "bool"
            },
            {
              "internalType": "bool",
              "name": "deleted",
              "type": "bool"
            },
            {
              "internalType": "bool",
              "name": "starred",
              "type": "bool"
            },
            {
              "internalType": "bool",
              "name": "important",
              "type": "bool"
            },
            {
              "internalType": "uint256",
              "name": "created_at",
              "type": "uint256"
            }
          ],
          "internalType": "struct TaskContract.Task[]",
          "name": "",
          "type": "tuple[]"
        }
      ],
      "stateMutability": "view",
      "type": "function"
    },
    {
      "inputs": [],
      "name": "getUnimportantTasks",
      "outputs": [
        {
          "components": [
            {
              "internalType": "string",
              "name": "name",
              "type": "string"
            },
            {
              "internalType": "string",
              "name": "description",
              "type": "string"
            },
            {
              "internalType": "bool",
              "name": "completed",
              "type": "bool"
            },
            {
              "internalType": "bool",
              "name": "deleted",
              "type": "bool"
            },
            {
              "internalType": "bool",
              "name": "starred",
              "type": "bool"
            },
            {
              "internalType": "bool",
              "name": "important",
              "type": "bool"
            },
            {
              "internalType": "uint256",
              "name": "created_at",
              "type": "uint256"
            }
          ],
          "internalType": "struct TaskContract.Task[]",
          "name": "",
          "type": "tuple[]"
        }
      ],
      "stateMutability": "view",
      "type": "function"
    },
    {
      "inputs": [
        {
          "internalType": "uint256",
          "name": "id",
          "type": "uint256"
        }
      ],
      "name": "deleteTask",
      "outputs": [],
      "stateMutability": "nonpayable",
      "type": "function"
    },
    {
      "inputs": [
        {
          "internalType": "uint256",
          "name": "id",
          "type": "uint256"
        }
      ],
      "name": "toggleStarred",
      "outputs": [],
      "stateMutability": "nonpayable",
      "type": "function"
    },
    {
      "inputs": [
        {
          "internalType": "uint256",
          "name": "id",
          "type": "uint256"
        }
      ],
      "name": "toggleImportant",
      "outputs": [],
      "stateMutability": "nonpayable",
      "type": "function"
    },
    {
      "inputs": [
        {
          "internalType": "uint256",
          "name": "id",
          "type": "uint256"
        }
      ],
      "name": "toggleCompleted",
      "outputs": [],
      "stateMutability": "nonpayable",
      "type": "function"
    }
  ],
  "bytecode": "0x608060405234801561001057600080fd5b5061334f806100206000396000f3fe608060405234801561001057600080fd5b50600436106101005760003560e01c80636e37208111610097578063b37b100011610066578063b37b1000146102a5578063b42cbbc2146102c1578063f01b399c146102dd578063fb130bc7146102fb57610100565b80636e37208114610227578063760197ce1461024b5780637ae4a30d14610269578063a28951211461028757610100565b806320dc0ec7116100d357806320dc0ec71461018f578063455f5024146101bf578063560f3192146101db5780636641c6c4146101f757610100565b806304a87e381461010557806315366c11146101235780631a948829146101415780631d65e77e1461015f575b600080fd5b61010d610317565b60405161011a9190612ae9565b60405180910390f35b61012b610679565b6040516101389190612ae9565b60405180910390f35b6101496109f1565b6040516101569190612ae9565b60405180910390f35b61017960048036038101906101749190612b4b565b610d6a565b6040516101869190612c1b565b60405180910390f35b6101a960048036038101906101a49190612c9b565b610f81565b6040516101b69190612cd7565b60405180910390f35b6101d960048036038101906101d49190612b4b565b610f99565b005b6101f560048036038101906101f09190612b4b565b611084565b005b610211600480360381019061020c9190612b4b565b611192565b60405161021e9190612d01565b60405180910390f35b61022f6111c5565b6040516102429796959493929190612d1c565b60405180910390f35b610253611658565b6040516102609190612ae9565b60405180910390f35b6102716119e3565b60405161027e9190612ae9565b60405180910390f35b61028f611d6c565b60405161029c9190612ae9565b60405180910390f35b6102bf60048036038101906102ba9190612ec0565b6120f8565b005b6102db60048036038101906102d69190612b4b565b612312565b005b6102e56123fd565b6040516102f29190612ae9565b60405180910390f35b61031560048036038101906103109190612b4b565b612787565b005b60606000600160003373ffffffffffffffffffffffffffffffffffffffff1673ffffffffffffffffffffffffffffffffffffffff1681526020019081526020016000205467ffffffffffffffff81111561037457610373612d95565b5b6040519080825280602002602001820160405280156103ad57816020015b61039a612872565b8152602001906001900390816103925790505b5090506000805b6002805490508110156106705760001515600282815481106103d9576103d8612f38565b5b906000526020600020906004020160020160019054906101000a900460ff16151514801561046457503373ffffffffffffffffffffffffffffffffffffffff1660008083815260200190815260200160002060009054906101000a900473ffffffffffffffffffffffffffffffffffffffff1673ffffffffffffffffffffffffffffffffffffffff16145b1561065d576002818154811061047d5761047c612f38565b5b90600052602060002090600402016040518060e00160405290816000820180546104a690612f96565b80601f01602080910402602001604051908101604052809291908181526020018280546104d290612f96565b801561051f5780601f106104f45761010080835404028352916020019161051f565b820191906000526020600020905b81548152906001019060200180831161050257829003601f168201915b5050505050815260200160018201805461053890612f96565b80601f016020809104026020016040519081016040528092919081815260200182805461056490612f96565b80156105b15780601f10610586576101008083540402835291602001916105b1565b820191906000526020600020905b81548152906001019060200180831161059457829003601f168201915b505050505081526020016002820160009054906101000a900460ff161515151581526020016002820160019054906101000a900460ff161515151581526020016002820160029054906101000a900460ff161515151581526020016002820160039054906101000a900460ff1615151515815260200160038201548152505083838151811061064357610642612f38565b5b6020026020010181905250818061065990612ff6565b9250505b808061066890612ff6565b9150506103b4565b50819250505090565b606060006106856111c5565b909192939450909192935090919250909150905050809150506000808267ffffffffffffffff8111156106bb576106ba612d95565b5b6040519080825280602002602001820160405280156106f457816020015b6106e1612872565b8152602001906001900390816106d95790505b50905060005b6002805490508110156109e75760008082815260200190815260200160002060009054906101000a900473ffffffffffffffffffffffffffffffffffffffff1673ffffffffffffffffffffffffffffffffffffffff163373ffffffffffffffffffffffffffffffffffffffff16036109d457600115156002828154811061078457610783612f38565b5b906000526020600020906004020160020160009054906101000a900460ff1615151480156107e8575060001515600282815481106107c5576107c4612f38565b5b906000526020600020906004020160020160019054906101000a900460ff161515145b156109d3576002818154811061080157610800612f38565b5b90600052602060002090600402016040518060e001604052908160008201805461082a90612f96565b80601f016020809104026020016040519081016040528092919081815260200182805461085690612f96565b80156108a35780601f10610878576101008083540402835291602001916108a3565b820191906000526020600020905b81548152906001019060200180831161088657829003601f168201915b505050505081526020016001820180546108bc90612f96565b80601f01602080910402602001604051908101604052809291908181526020018280546108e890612f96565b80156109355780601f1061090a57610100808354040283529160200191610935565b820191906000526020600020905b81548152906001019060200180831161091857829003601f168201915b505050505081526020016002820160009054906101000a900460ff161515151581526020016002820160019054906101000a900460ff161515151581526020016002820160029054906101000a900460ff161515151581526020016002820160039054906101000a900460ff161515151581526020016003820154815250508284815181106109c7576109c6612f38565b5b60200260200101819052505b5b80806109df90612ff6565b9150506106fa565b5080935050505090565b606060006109fd6111c5565b90919293949550909192935090919250909150905050809150506000808267ffffffffffffffff811115610a3457610a33612d95565b5b604051908082528060200260200182016040528015610a6d57816020015b610a5a612872565b815260200190600190039081610a525790505b50905060005b600280549050811015610d605760008082815260200190815260200160002060009054906101000a900473ffffffffffffffffffffffffffffffffffffffff1673ffffffffffffffffffffffffffffffffffffffff163373ffffffffffffffffffffffffffffffffffffffff1603610d4d576000151560028281548110610afd57610afc612f38565b5b906000526020600020906004020160020160009054906101000a900460ff161515148015610b6157506000151560028281548110610b3e57610b3d612f38565b5b906000526020600020906004020160020160019054906101000a900460ff161515145b15610d4c5760028181548110610b7a57610b79612f38565b5b90600052602060002090600402016040518060e0016040529081600082018054610ba390612f96565b80601f0160208091040260200160405190810160405280929190818152602001828054610bcf90612f96565b8015610c1c5780601f10610bf157610100808354040283529160200191610c1c565b820191906000526020600020905b815481529060010190602001808311610bff57829003601f168201915b50505050508152602001600182018054610c3590612f96565b80601f0160208091040260200160405190810160405280929190818152602001828054610c6190612f96565b8015610cae5780601f10610c8357610100808354040283529160200191610cae565b820191906000526020600020905b815481529060010190602001808311610c9157829003601f168201915b505050505081526020016002820160009054906101000a900460ff161515151581526020016002820160019054906101000a900460ff161515151581526020016002820160029054906101000a900460ff161515151581526020016002820160039054906101000a900460ff16151515158152602001600382015481525050828481518110610d4057610d3f612f38565b5b60200260200101819052505b5b8080610d5890612ff6565b915050610a73565b5080935050505090565b610d72612872565b816000151560028281548110610d8b57610d8a612f38565b5b906000526020600020906004020160020160019054906101000a900460ff16151503610f7b5760028381548110610dc557610dc4612f38565b5b90600052602060002090600402016040518060e0016040529081600082018054610dee90612f96565b80601f0160208091040260200160405190810160405280929190818152602001828054610e1a90612f96565b8015610e675780601f10610e3c57610100808354040283529160200191610e67565b820191906000526020600020905b815481529060010190602001808311610e4a57829003601f168201915b50505050508152602001600182018054610e8090612f96565b80601f0160208091040260200160405190810160405280929190818152602001828054610eac90612f96565b8015610ef95780601f10610ece57610100808354040283529160200191610ef9565b820191906000526020600020905b815481529060010190602001808311610edc57829003601f168201915b505050505081526020016002820160009054906101000a900460ff161515151581526020016002820160019054906101000a900460ff161515151581526020016002820160029054906101000a900460ff161515151581526020016002820160039054906101000a900460ff1615151515815260200160038201548152505091505b50919050565b60016020528060005260406000206000915090505481565b806000151560028281548110610fb257610fb1612f38565b5b906000526020600020906004020160020160019054906101000a900460ff161515036110805760028281548110610fec57610feb612f38565b5b906000526020600020906004020160020160009054906101000a900460ff1615600283815481106110205761101f612f38565b5b906000526020600020906004020160020160006101000a81548160ff0219169083151502179055507f6609cd564a515cc09deed9748ce5d9ca750c1b9e83f7ff246dbfac4de84a0aaa826040516110779190612cd7565b60405180910390a15b5050565b80600015156002828154811061109d5761109c612f38565b5b906000526020600020906004020160020160019054906101000a900460ff1615150361118e576001600283815481106110d9576110d8612f38565b5b906000526020600020906004020160020160016101000a81548160ff021916908315150217905550600160003373ffffffffffffffffffffffffffffffffffffffff1673ffffffffffffffffffffffffffffffffffffffff16815260200190815260200160002060008154809291906111519061303e565b91905055507fd078b251d950cc55c44340be1db732337ef4939a76e1367ee271ad2cb19c46af826040516111859190612cd7565b60405180910390a15b5050565b60006020528060005260406000206000915054906101000a900473ffffffffffffffffffffffffffffffffffffffff1681565b6000806000806000806000806000905060008060008060008060005b6002805490508110156116325760008082815260200190815260200160002060009054906101000a900473ffffffffffffffffffffffffffffffffffffffff1673ffffffffffffffffffffffffffffffffffffffff163373ffffffffffffffffffffffffffffffffffffffff160361161f57600115156002828154811061126b5761126a612f38565b5b906000526020600020906004020160020160009054906101000a900460ff1615151480156112cf575060001515600282815481106112ac576112ab612f38565b5b906000526020600020906004020160020160019054906101000a900460ff161515145b156112e75787806112df90612ff6565b98505061161e565b60001515600282815481106112ff576112fe612f38565b5b906000526020600020906004020160020160009054906101000a900460ff161515148015611363575060001515600282815481106113405761133f612f38565b5b906000526020600020906004020160020160019054906101000a900460ff161515145b1561137b57868061137390612ff6565b97505061161d565b600115156002828154811061139357611392612f38565b5b906000526020600020906004020160020160019054906101000a900460ff161515036113cc5785806113c490612ff6565b96505061161c565b60011515600282815481106113e4576113e3612f38565b5b906000526020600020906004020160020160039054906101000a900460ff1615151480156114485750600015156002828154811061142557611424612f38565b5b906000526020600020906004020160020160019054906101000a900460ff161515145b1561146057828061145890612ff6565b93505061161b565b600015156002828154811061147857611477612f38565b5b906000526020600020906004020160020160039054906101000a900460ff1615151480156114dc575060001515600282815481106114b9576114b8612f38565b5b906000526020600020906004020160020160019054906101000a900460ff161515145b156114f45781806114ec90612ff6565b92505061161a565b600115156002828154811061150c5761150b612f38565b5b906000526020600020906004020160020160029054906101000a900460ff1615151480156115705750600015156002828154811061154d5761154c612f38565b5b906000526020600020906004020160020160019054906101000a900460ff161515145b1561158857848061158090612ff6565b955050611619565b60001515600282815481106115a05761159f612f38565b5b906000526020600020906004020160020160029054906101000a900460ff161515148015611604575060001515600282815481106115e1576115e0612f38565b5b906000526020600020906004020160020160019054906101000a900460ff161515145b1561161857838061161490612ff6565b9450505b5b5b5b5b5b5b5b808061162a90612ff6565b9150506111e1565b50868686848488889d509d509d509d509d509d509d505050505050505090919293949596565b606060006116646111c5565b9091929394955090919293945090919293509091925090915050809150506000808267ffffffffffffffff81111561169f5761169e612d95565b5b6040519080825280602002602001820160405280156116d857816020015b6116c5612872565b8152602001906001900390816116bd5790505b50905060005b6002805490508110156119d95760008082815260200190815260200160002060009054906101000a900473ffffffffffffffffffffffffffffffffffffffff1673ffffffffffffffffffffffffffffffffffffffff163373ffffffffffffffffffffffffffffffffffffffff16036119c657600115156002828154811061176857611767612f38565b5b906000526020600020906004020160020160029054906101000a900460ff1615151480156117cc575060001515600282815481106117a9576117a8612f38565b5b906000526020600020906004020160020160019054906101000a900460ff161515145b156119c557600281815481106117e5576117e4612f38565b5b90600052602060002090600402016040518060e001604052908160008201805461180e90612f96565b80601f016020809104026020016040519081016040528092919081815260200182805461183a90612f96565b80156118875780601f1061185c57610100808354040283529160200191611887565b820191906000526020600020905b81548152906001019060200180831161186a57829003601f168201915b505050505081526020016001820180546118a090612f96565b80601f01602080910402602001604051908101604052809291908181526020018280546118cc90612f96565b80156119195780601f106118ee57610100808354040283529160200191611919565b820191906000526020600020905b8154815290600101906020018083116118fc57829003601f168201915b505050505081526020016002820160009054906101000a900460ff161515151581526020016002820160019054906101000a900460ff161515151581526020016002820160029054906101000a900460ff161515151581526020016002820160039054906101000a900460ff161515151581526020016003820154815250508284815181106119ab576119aa612f38565b5b602002602001018190525082806119c190612ff6565b9350505b5b80806119d190612ff6565b9150506116de565b5080935050505090565b606060006119ef6111c5565b909192939495509091929394509091929350909150905050809150506000808267ffffffffffffffff811115611a2857611a27612d95565b5b604051908082528060200260200182016040528015611a6157816020015b611a4e612872565b815260200190600190039081611a465790505b50905060005b600280549050811015611d625760008082815260200190815260200160002060009054906101000a900473ffffffffffffffffffffffffffffffffffffffff1673ffffffffffffffffffffffffffffffffffffffff163373ffffffffffffffffffffffffffffffffffffffff1603611d4f576001151560028281548110611af157611af0612f38565b5b906000526020600020906004020160020160039054906101000a900460ff161515148015611b5557506000151560028281548110611b3257611b31612f38565b5b906000526020600020906004020160020160019054906101000a900460ff161515145b15611d4e5760028181548110611b6e57611b6d612f38565b5b90600052602060002090600402016040518060e0016040529081600082018054611b9790612f96565b80601f0160208091040260200160405190810160405280929190818152602001828054611bc390612f96565b8015611c105780601f10611be557610100808354040283529160200191611c10565b820191906000526020600020905b815481529060010190602001808311611bf357829003601f168201915b50505050508152602001600182018054611c2990612f96565b80601f0160208091040260200160405190810160405280929190818152602001828054611c5590612f96565b8015611ca25780601f10611c7757610100808354040283529160200191611ca2565b820191906000526020600020905b815481529060010190602001808311611c8557829003601f168201915b505050505081526020016002820160009054906101000a900460ff161515151581526020016002820160019054906101000a900460ff161515151581526020016002820160029054906101000a900460ff161515151581526020016002820160039054906101000a900460ff16151515158152602001600382015481525050828481518110611d3457611d33612f38565b5b60200260200101819052508280611d4a90612ff6565b9350505b5b8080611d5a90612ff6565b915050611a67565b5080935050505090565b60606000611d786111c5565b909192939495509091929394509091929350909192509091509050809150506000808267ffffffffffffffff811115611db457611db3612d95565b5b604051908082528060200260200182016040528015611ded57816020015b611dda612872565b815260200190600190039081611dd25790505b50905060005b6002805490508110156120ee5760008082815260200190815260200160002060009054906101000a900473ffffffffffffffffffffffffffffffffffffffff1673ffffffffffffffffffffffffffffffffffffffff163373ffffffffffffffffffffffffffffffffffffffff16036120db576000151560028281548110611e7d57611e7c612f38565b5b906000526020600020906004020160020160029054906101000a900460ff161515148015611ee157506000151560028281548110611ebe57611ebd612f38565b5b906000526020600020906004020160020160019054906101000a900460ff161515145b156120da5760028181548110611efa57611ef9612f38565b5b90600052602060002090600402016040518060e0016040529081600082018054611f2390612f96565b80601f0160208091040260200160405190810160405280929190818152602001828054611f4f90612f96565b8015611f9c5780601f10611f7157610100808354040283529160200191611f9c565b820191906000526020600020905b815481529060010190602001808311611f7f57829003601f168201915b50505050508152602001600182018054611fb590612f96565b80601f0160208091040260200160405190810160405280929190818152602001828054611fe190612f96565b801561202e5780601f106120035761010080835404028352916020019161202e565b820191906000526020600020905b81548152906001019060200180831161201157829003601f168201915b505050505081526020016002820160009054906101000a900460ff161515151581526020016002820160019054906101000a900460ff161515151581526020016002820160029054906101000a900460ff161515151581526020016002820160039054906101000a900460ff161515151581526020016003820154815250508284815181106120c0576120bf612f38565b5b602002602001018190525082806120d690612ff6565b9350505b5b80806120e690612ff6565b915050611df3565b5080935050505090565b60026040518060e0016040528084815260200183815260200160001515815260200160001515815260200160001515815260200160001515815260200142815250908060018154018082558091505060019003906000526020600020906004020160009091909190915060008201518160000190816121779190613213565b50602082015181600101908161218d9190613213565b5060408201518160020160006101000a81548160ff02191690831515021790555060608201518160020160016101000a81548160ff02191690831515021790555060808201518160020160026101000a81548160ff02191690831515021790555060a08201518160020160036101000a81548160ff02191690831515021790555060c0820151816003015550506000600160028054905061222e91906132e5565b90503360008083815260200190815260200160002060006101000a81548173ffffffffffffffffffffffffffffffffffffffff021916908373ffffffffffffffffffffffffffffffffffffffff160217905550600160003373ffffffffffffffffffffffffffffffffffffffff1673ffffffffffffffffffffffffffffffffffffffff16815260200190815260200160002060008154809291906122d190612ff6565b91905055507fba46948ae716559226cede7aac0175e8ddd11b7cb3ea0369c9f218ef908b87d5816040516123059190612cd7565b60405180910390a1505050565b80600015156002828154811061232b5761232a612f38565b5b906000526020600020906004020160020160019054906101000a900460ff161515036123f9576002828154811061236557612364612f38565b5b906000526020600020906004020160020160039054906101000a900460ff16156002838154811061239957612398612f38565b5b906000526020600020906004020160020160036101000a81548160ff0219169083151502179055507f6609cd564a515cc09deed9748ce5d9ca750c1b9e83f7ff246dbfac4de84a0aaa826040516123f09190612cd7565b60405180910390a15b5050565b606060006124096111c5565b90919293949550909192939450909192935090919250905050809150506000808267ffffffffffffffff81111561244357612442612d95565b5b60405190808252806020026020018201604052801561247c57816020015b612469612872565b8152602001906001900390816124615790505b50905060005b60028054905081101561277d5760008082815260200190815260200160002060009054906101000a900473ffffffffffffffffffffffffffffffffffffffff1673ffffffffffffffffffffffffffffffffffffffff163373ffffffffffffffffffffffffffffffffffffffff160361276a57600015156002828154811061250c5761250b612f38565b5b906000526020600020906004020160020160039054906101000a900460ff1615151480156125705750600015156002828154811061254d5761254c612f38565b5b906000526020600020906004020160020160019054906101000a900460ff161515145b15612769576002818154811061258957612588612f38565b5b90600052602060002090600402016040518060e00160405290816000820180546125b290612f96565b80601f01602080910402602001604051908101604052809291908181526020018280546125de90612f96565b801561262b5780601f106126005761010080835404028352916020019161262b565b820191906000526020600020905b81548152906001019060200180831161260e57829003601f168201915b5050505050815260200160018201805461264490612f96565b80601f016020809104026020016040519081016040528092919081815260200182805461267090612f96565b80156126bd5780601f10612692576101008083540402835291602001916126bd565b820191906000526020600020905b8154815290600101906020018083116126a057829003601f168201915b505050505081526020016002820160009054906101000a900460ff161515151581526020016002820160019054906101000a900460ff161515151581526020016002820160029054906101000a900460ff161515151581526020016002820160039054906101000a900460ff1615151515815260200160038201548152505082848151811061274f5761274e612f38565b5b6020026020010181905250828061276590612ff6565b9350505b5b808061277590612ff6565b915050612482565b5080935050505090565b8060001515600282815481106127a05761279f612f38565b5b906000526020600020906004020160020160019054906101000a900460ff1615150361286e57600282815481106127da576127d9612f38565b5b906000526020600020906004020160020160029054906101000a900460ff16156002838154811061280e5761280d612f38565b5b906000526020600020906004020160020160026101000a81548160ff0219169083151502179055507f6609cd564a515cc09deed9748ce5d9ca750c1b9e83f7ff246dbfac4de84a0aaa826040516128659190612cd7565b60405180910390a15b5050565b6040518060e001604052806060815260200160608152602001600015158152602001600015158152602001600015158152602001600015158152602001600081525090565b600081519050919050565b600082825260208201905092915050565b6000819050602082019050919050565b600081519050919050565b600082825260208201905092915050565b60005b8381101561291d578082015181840152602081019050612902565b8381111561292c576000848401525b50505050565b6000601f19601f8301169050919050565b600061294e826128e3565b61295881856128ee565b93506129688185602086016128ff565b61297181612932565b840191505092915050565b60008115159050919050565b6129918161297c565b82525050565b6000819050919050565b6129aa81612997565b82525050565b600060e08301600083015184820360008601526129cd8282612943565b915050602083015184820360208601526129e78282612943565b91505060408301516129fc6040860182612988565b506060830151612a0f6060860182612988565b506080830151612a226080860182612988565b5060a0830151612a3560a0860182612988565b5060c0830151612a4860c08601826129a1565b508091505092915050565b6000612a5f83836129b0565b905092915050565b6000602082019050919050565b6000612a7f826128b7565b612a8981856128c2565b935083602082028501612a9b856128d3565b8060005b85811015612ad75784840389528151612ab88582612a53565b9450612ac383612a67565b925060208a01995050600181019050612a9f565b50829750879550505050505092915050565b60006020820190508181036000830152612b038184612a74565b905092915050565b6000604051905090565b600080fd5b600080fd5b612b2881612997565b8114612b3357600080fd5b50565b600081359050612b4581612b1f565b92915050565b600060208284031215612b6157612b60612b15565b5b6000612b6f84828501612b36565b91505092915050565b600060e0830160008301518482036000860152612b958282612943565b91505060208301518482036020860152612baf8282612943565b9150506040830151612bc46040860182612988565b506060830151612bd76060860182612988565b506080830151612bea6080860182612988565b5060a0830151612bfd60a0860182612988565b5060c0830151612c1060c08601826129a1565b508091505092915050565b60006020820190508181036000830152612c358184612b78565b905092915050565b600073ffffffffffffffffffffffffffffffffffffffff82169050919050565b6000612c6882612c3d565b9050919050565b612c7881612c5d565b8114612c8357600080fd5b50565b600081359050612c9581612c6f565b92915050565b600060208284031215612cb157612cb0612b15565b5b6000612cbf84828501612c86565b91505092915050565b612cd181612997565b82525050565b6000602082019050612cec6000830184612cc8565b92915050565b612cfb81612c5d565b82525050565b6000602082019050612d166000830184612cf2565b92915050565b600060e082019050612d31600083018a612cc8565b612d3e6020830189612cc8565b612d4b6040830188612cc8565b612d586060830187612cc8565b612d656080830186612cc8565b612d7260a0830185612cc8565b612d7f60c0830184612cc8565b98975050505050505050565b600080fd5b600080fd5b7f4e487b7100000000000000000000000000000000000000000000000000000000600052604160045260246000fd5b612dcd82612932565b810181811067ffffffffffffffff82111715612dec57612deb612d95565b5b80604052505050565b6000612dff612b0b565b9050612e0b8282612dc4565b919050565b600067ffffffffffffffff821115612e2b57612e2a612d95565b5b612e3482612932565b9050602081019050919050565b82818337600083830152505050565b6000612e63612e5e84612e10565b612df5565b905082815260208101848484011115612e7f57612e7e612d90565b5b612e8a848285612e41565b509392505050565b600082601f830112612ea757612ea6612d8b565b5b8135612eb7848260208601612e50565b91505092915050565b60008060408385031215612ed757612ed6612b15565b5b600083013567ffffffffffffffff811115612ef557612ef4612b1a565b5b612f0185828601612e92565b925050602083013567ffffffffffffffff811115612f2257612f21612b1a565b5b612f2e85828601612e92565b9150509250929050565b7f4e487b7100000000000000000000000000000000000000000000000000000000600052603260045260246000fd5b7f4e487b7100000000000000000000000000000000000000000000000000000000600052602260045260246000fd5b60006002820490506001821680612fae57607f821691505b602082108103612fc157612fc0612f67565b5b50919050565b7f4e487b7100000000000000000000000000000000000000000000000000000000600052601160045260246000fd5b600061300182612997565b91507fffffffffffffffffffffffffffffffffffffffffffffffffffffffffffffffff820361303357613032612fc7565b5b600182019050919050565b600061304982612997565b91506000820361305c5761305b612fc7565b5b600182039050919050565b60008190508160005260206000209050919050565b60006020601f8301049050919050565b600082821b905092915050565b6000600883026130c97fffffffffffffffffffffffffffffffffffffffffffffffffffffffffffffffff8261308c565b6130d3868361308c565b95508019841693508086168417925050509392505050565b6000819050919050565b600061311061310b61310684612997565b6130eb565b612997565b9050919050565b6000819050919050565b61312a836130f5565b61313e61313682613117565b848454613099565b825550505050565b600090565b613153613146565b61315e818484613121565b505050565b5b818110156131825761317760008261314b565b600181019050613164565b5050565b601f8211156131c75761319881613067565b6131a18461307c565b810160208510156131b0578190505b6131c46131bc8561307c565b830182613163565b50505b505050565b600082821c905092915050565b60006131ea600019846008026131cc565b1980831691505092915050565b600061320383836131d9565b9150826002028217905092915050565b61321c826128e3565b67ffffffffffffffff81111561323557613234612d95565b5b61323f8254612f96565b61324a828285613186565b600060209050601f83116001811461327d576000841561326b578287015190505b61327585826131f7565b8655506132dd565b601f19841661328b86613067565b60005b828110156132b35784890151825560018201915060208501945060208101905061328e565b868310156132d057848901516132cc601f8916826131d9565b8355505b6001600288020188555050505b505050505050565b60006132f082612997565b91506132fb83612997565b92508282101561330e5761330d612fc7565b5b82820390509291505056fea264697066735822122037cf22d3d141b0406fe4ceaa36ba7dbce70991a4de345339085a77144c0026a764736f6c634300080f0033",
  "immutableReferences": {},
  "source": "// SPDX-License-Identifier: MIT\npragma solidity >=0.4.22 <0.9.0;\n\ncontract TaskContract {\n\n  //modifiers\n  modifier notDeleted ( uint _taskId) {\n    if(tasks[_taskId].deleted == false) _;\n  }\n\n  //events\n  event TaskCreated(uint _id);\n  event TaskDeleted(uint _id);\n  event TaskUpdated(uint _id);\n\n  //constructors\n  // constructor() public {\n  // }\n\n  //variables and definitions\n  struct Task {\n    string name;\n    string description;\n    bool completed;\n    bool deleted;\n    bool starred;\n    bool important;\n    uint created_at;\n  }\n  mapping(uint => address) public taskToOwner;\n  mapping(address => uint) public ownerToTaskCount;\n\n  Task[] tasks;\n\n  //functions\n  function addTask(string memory _name, string memory _description) external {\n    tasks.push(Task(\n      _name,\n      _description,\n      false,\n      false,\n      false,\n      false,\n      block.timestamp\n    ));\n    uint id = tasks.length - 1;\n    taskToOwner[id] = msg.sender;\n    ownerToTaskCount[msg.sender]++;\n    emit TaskCreated(id);\n\n  }\n\n  function getTask(uint id) external view notDeleted(id)  returns ( Task  memory tsk)  {\n    return tasks[id];\n  }\n\n  function getTasksStatusCount () public view returns (uint completed, uint incomplete, uint deleted, uint important, uint unimportant, uint starred, uint unstarred) {\n    uint complete_count = 0;\n    uint incomplete_count = 0;\n    uint deleted_count = 0;\n    uint starred_count = 0;\n    uint unstarred_count = 0;\n    uint important_count = 0;\n    uint unimportant_count = 0;\n    for(uint i = 0; i < tasks.length; i++){\n      if(msg.sender == taskToOwner[i]){\n          if(tasks[i].completed == true && tasks[i].deleted == false){\n            complete_count++;\n          } else if(tasks[i].completed == false && tasks[i].deleted == false) {\n            incomplete_count++;\n          }else if(tasks[i].deleted == true){\n            deleted_count++;\n          }else if(tasks[i].important == true && tasks[i].deleted == false){\n            important_count++;\n          }else if(tasks[i].important == false && tasks[i].deleted == false){\n            unimportant_count++;\n          }else if(tasks[i].starred == true && tasks[i].deleted == false){\n            starred_count++;\n          }else if(tasks[i].starred == false && tasks[i].deleted == false){\n            unstarred_count++;\n          }\n          \n        }\n      }\n\n      return (complete_count, incomplete_count, deleted_count, important_count, unimportant_count, starred_count, unstarred_count);\n    }\n\n  function getTasks() external view returns (Task[] memory) {\n    Task[] memory _tasks = new Task[](ownerToTaskCount[msg.sender]);\n    uint count = 0;\n    for(uint i = 0; i < tasks.length; i++){\n      if(tasks[i].deleted == false && taskToOwner[i] == msg.sender){\n        _tasks[count] = tasks[i];\n        count++;\n      }\n    }\n    return _tasks;\n  }\n\n  function getTasksCompletedByUser() external view returns (Task[] memory){\n    uint completed;\n    (completed, , ,,,,) = getTasksStatusCount();\n    uint count;\n\n    Task[] memory _tasks = new Task[](completed);\n\n    for(uint i = 0; i < tasks.length; i++){\n      if(msg.sender == taskToOwner[i]){\n        if(tasks[i].completed == true && tasks[i].deleted == false){\n          _tasks[count] = tasks[i];\n        }\n      }\n      \n    }\n\n    return _tasks;\n\n  }\n\n  function getTasksNotCompletedByUser() external view returns (Task[] memory){\n    uint incomplete;\n    (, incomplete, ,,,,) = getTasksStatusCount();\n    uint count;\n\n    Task[] memory _tasks = new Task[](incomplete);\n\n    for (uint i = 0 ;  i < tasks.length; i++){\n      if(msg.sender == taskToOwner[i]){\n        if(tasks[i].completed == false && tasks[i].deleted == false){\n          _tasks[count] = tasks[i];\n        }\n      }\n    }\n    return _tasks;\n  }\n\n  function getStarredTasks() external view returns (Task[] memory) {\n    uint starred;\n    (, , , , , starred,) = getTasksStatusCount();\n    uint count;\n    Task[] memory _tasks = new Task[](starred);\n    for(uint i = 0; i < tasks.length; i++){\n      if(msg.sender == taskToOwner[i]){\n        if(tasks[i].starred == true && tasks[i].deleted == false){\n          _tasks[count] = tasks[i];\n          count++;\n        }\n      }\n    }\n    return _tasks;\n  }\n\n\n  function getUnstarredTasks() external view returns (Task[] memory) {\n    uint unstarred;\n    (, , , , , , unstarred) = getTasksStatusCount();\n    uint count;\n    Task[] memory _tasks = new Task[](unstarred);\n    for(uint i = 0; i < tasks.length; i++){\n      if(msg.sender == taskToOwner[i]){\n        if(tasks[i].starred == false && tasks[i].deleted == false){\n          _tasks[count] = tasks[i];\n          count++;\n        }\n      }\n    }\n    return _tasks;\n  }\n  function getImportantTasks() external view returns (Task[] memory) {\n    uint important;\n    (, , , important, ,,) = getTasksStatusCount();\n    uint count;\n    Task[] memory _tasks = new Task[](important);\n    for(uint i = 0; i < tasks.length; i++){\n      if(msg.sender == taskToOwner[i]){\n        if(tasks[i].important == true && tasks[i].deleted == false){\n          _tasks[count] = tasks[i];\n          count++;\n        }\n      }\n    }\n    return _tasks;\n  }\n\n  function getUnimportantTasks() external view returns (Task[] memory) {\n    uint unimportant;\n    (, , , , unimportant,,) = getTasksStatusCount();\n    uint count;\n    Task[] memory _tasks = new Task[](unimportant);\n    for(uint i = 0; i < tasks.length; i++){\n      if(msg.sender == taskToOwner[i]){\n        if(tasks[i].important == false && tasks[i].deleted == false){\n          _tasks[count] = tasks[i];\n          count++;\n        }\n      }\n    }\n    return _tasks;\n  }\n\n  \n\n  function deleteTask( uint id ) external notDeleted(id) {\n    tasks[id].deleted = true;\n    ownerToTaskCount[msg.sender]--;\n    emit TaskDeleted(id);\n  }\n\n  function toggleStarred (uint id) external notDeleted(id) {\n    tasks[id].starred = !tasks[id].starred;\n    emit TaskUpdated(id);\n  }\n\n  function toggleImportant (uint id) external notDeleted(id) {\n    tasks[id].important = !tasks[id].important;\n    emit TaskUpdated(id);\n  }\n\n  function toggleCompleted (uint id) external notDeleted(id) {\n    tasks[id].completed = !tasks[id].completed;\n    emit TaskUpdated(id);\n  }\n\n}\n",
  "sourcePath": "C:\\Users\\don\\Documents\\d_house_dev\\Web3\\todo\\backend\\contracts\\TaskContract.sol",
  "compiler": {
    "name": "solc",
    "version": "0.8.15+commit.e14f2714.Emscripten.clang"
  },
  "schemaVersion": "3.4.8",
  "updatedAt": "2022-08-11T19:23:01.002Z",
  "devdoc": {
    "kind": "dev",
    "methods": {},
    "version": 1
  },
  "userdoc": {
    "kind": "user",
    "methods": {},
    "version": 1
  }
}